:020000040800F2
:10000000E00A00200501000861070008CD0600088D
:100010005D070008E90400089B11000800000000CB
:10002000000000000000000000000000510B00086C
:100030006905000800000000390A0008890C000862
:100040001F0100081F0100081F0100081F01000810
:100050001F0100081F0100081F0100081F01000800
:100060001F0100081F0100081F0100081F010008F0
:100070001F0100081F0100081F0100081F010008E0
:100080001F0100081F0100081F0100081F010008D0
:100090001F0100081F0100081F0100081F010008C0
:1000A0001F0100081F0100081F0100081F010008B0
:1000B0001F010008ED0C00081F0100081F010008C7
:1000C0001F0100081F0100081F0100081F01000890
:1000D0001F010008050F00081F0100081F0100088C
:1000E0001F0100081F0100081F010008DFF810D0E1
:1000F00000F0E8F90048004741120008AFF3008023
:10010000E00A00200648804706480047FEE7FEE771
:10011000FEE7FEE7FEE7FEE7FEE7FEE7FEE7FEE7B7
:100120008D0C0008ED0000082DE9FE4F804681EAA5
:100130000300C00F0C46009021F0004123F0004561
:10014000B8EB0200A94105D24046214690461C4624
:100150000B46024623F00040104347D0270DC7F35B
:100160000A00C3F30A510290401A019040286BDA4A
:10017000C3F3130040F4801B0098924620B1002383
:10018000D2EB030A63EB0B0B01985946C0F1400216
:10019000504600F008F906460D4650465946019A69
:1001A00000F020F910EB08006141002487EA1152A9
:1001B00084EAE7731A4340D0009A62B3019A012A95
:1001C0004FEA075215DC001B61EB02014FF00042C1
:1001D00002EA0752CDE90042001C41F58011324687
:1001E0002B4600F020F903B0BDE8F08F40462146D1
:1001F000F9E7001B61EB0201001C41F580130018B8
:100200005B412018A2F5001747EB030140EAD570C7
:10021000B6196D4111E06D084FEA360645EAC07522
:100220004FEA0752001B61EB0201001C41F58011EF
:1002300049084FEA30000019514132462B4603B0BD
:10024000BDE8F04F00F0E0B8009801224000002324
:10025000D0EB020263EBE073009821464FEAE074B2
:10026000B8EB000061EB0401E9E783F000435BE7D2
:1002700081F0004158E72DE9FE4F81EA030404F0C4
:10028000004421F0004100944FF0000B23F00043A4
:1002900050EA01045ED052EA03045BD0C3F30A546F
:1002A000C1F30A552C44A4F2F3340194A0FB025488
:1002B000C1F3130141F48011C3F3130343F480131A
:1002C00001FB024400FB034E840A970A44EA81546E
:1002D00047EA8357A4FB076802958D0A05FB07854B
:1002E0004FEA932C04FB0C542705029D4FEA065855
:1002F00047EA1637B5EB08056EEB070C870E920E32
:1003000047EA811742EA8312A7FB0201B6EB0B0111
:1003100064EB00042B0D43EA0C335E1844EB1C50D5
:10032000DA465146E7FB0201C5F313044FEA0B33EB
:1003300043EA14534FEA0432019C43EA0603A4F152
:100340000C040294009CCDE900B400F06CF803B0FA
:10035000BDE8F08F00200146F9E70EB540F23341C9
:1003600002910021CDE900110A460B4600F05BF82E
:1003700003B000BDC1F30A5210B5C1F3130140F23E
:10038000FF3341F480119A4201DA002010BD40F29F
:1003900033439A42A2F2334203DC524200F012F895
:1003A00010BD904010BD202A04DB203A00FA02F173
:1003B000002070479140C2F1200320FA03F3194353
:1003C00090407047202A04DB203A21FA02F00021F5
:1003D000704721FA02F3D040C2F120029140084355
:1003E00019467047202A06DBCB17203A41FA02F063
:1003F00043EAE07306E041FA02F3D040C2F1200282
:10040000914008431946704710B5141E73F100045B
:1004100008DA401C41F1000192185B411A4301D1F6
:1004200020F0010010BD2DE9F04D92469B4611B120
:10043000B1FA81F202E0B0FA80F220329046FFF782
:10044000B2FF04460F4640EA0A0041EA0B01534658
:100450005A46084313D0114653EA010019D0C8F197
:1004600040025046FFF7AEFF05460E46504659463D
:100470004246FFF798FF084305D0012004E02046DC
:100480003946BDE8F08D0020054346EAE0762C436E
:1004900037430A986305E40AA0EB08000022FD0A2E
:1004A00044EA47540A3002D500200146E9E7010535
:1004B00010196941DDE9084500196941BDE8F04DB1
:1004C000A2E70000064C074D06E0E06840F001039B
:1004D00094E8070098471034AC42F6D3FFF70AFEC1
:1004E000D0120008F012000800BFFEE739B1084A38
:1004F0001268012383401A43054B1A6006E0044A40
:100500001268012383409A43014B1A607047000030
:100510000074004030B5002200230A4C226840F6E7
:10052000FE748440A243D1E900452C438D682C43DE
:10053000CD6844EA050303FA00F42243014C22602B
:1005400030BD00000074004008B500220092054A4A
:10055000009200F10802009B1A440092009A116078
:1005600008BD00000074004070472DE9F0410746C7
:10057000884600F02FF9002413E037F81450EA17EA
:1005800005EB92629211A5EB8212D1B22646E217D8
:1005900004EB5262D211A4EBC212D0B200F032F9D5
:1005A000641C4445E9DB00F005FABDE8F0812DE963
:1005B000F0410246002500260020002300240027E9
:1005C00091F803C00CF00F0591F803C00CF0100C6B
:1005D000BCF1000F03D091F802C04CEA050591F878
:1005E00000C0BCF1000F31D0146800202BE04FF0A8
:1005F000010C0CFA00F3B1F800C00CEA03069E42AD
:1006000020D183004FF00F0C0CFA03F7BC4305FA1E
:1006100003FC4CEA040491F803C0BCF1280F06D196
:100620004FF0010C0CFA00FCC2F814C00AE091F87B
:1006300003C0BCF1480F05D14FF0010C0CFA00FCCF
:10064000C2F810C0401C0828D1D31460B1F800C013
:10065000BCF1FF0F34DD546800202EE000F1080CDF
:100660004FF0010808FA0CF3B1F800C00CEA0306D9
:100670009E4221D183004FF00F0C0CFA03F7BC43CC
:1006800005FA03FC4CEA040491F803C0BCF1280FFE
:1006900005D100F1080C08FA0CF8C2F8148091F8A2
:1006A00003C0BCF1480F07D100F1080C4FF001085E
:1006B00008FA0CF8C2F81080401C0828CED3546009
:1006C000BDE8F081416170470161704700BFFEE7FE
:1006D00010B580210748FFF7F7FF20210548FFF7F5
:1006E000F3FF80210348FFF7EDFF20210148FFF7CA
:1006F000E9FF10BD0008014010B520210548FFF7B3
:10070000E3FF80210348FFF7DDFF80210148FFF769
:10071000DBFF10BD0008014010B520210348FFF7A2
:10072000D3FF20210148FFF7CDFF10BD0008014095
:1007300008B50121042000F091F90220ADF8000075
:1007400010208DF8030003208DF80200694602484E
:10075000FFF72DFF08BD00000008014000BFFEE7C5
:100760007047000070B5002100230F22C47804B345
:10077000154C246804F4E064C4F5E064210AC1F176
:100780000403CA40447804FA03F1847814402143F6
:1007900009010E4C0678A155047804F01F050124C8
:1007A000AC4005786D11AD0005F1E025C5F80041BC
:1007B00009E0047804F01F050124AC40044D0678DC
:1007C000761145F8264070BD0CED00E000E400E035
:1007D00080E100E070B500240CE0002506E0002078
:1007E000074901EBC5010855681CC5B2802DF6DB31
:1007F000601CC4B2082CF0DB00F0DCF870BD000017
:100800003000002070B50A46CE1701EB5676C6F3CD
:10081000C703CE1701EB5676F610A1EBC606F4B26D
:100820000122A240D5B2054A02EBC002D25C2A43A3
:10083000024E06EBC006F25470BD000030000020EE
:1008400008B50121042000F009F9B020ADF800003E
:1008500010208DF8030003208DF8020069465348EC
:10086000FFF7A5FEB0215148FFF72EFF0121082018
:1008700000F0F4F840F20310ADF8000010208DF8FD
:10088000030003208DF8020069464948FFF78FFEF8
:1008900040F203114648FFF717FF01214448FFF7D4
:1008A00013FF642000F08AFC01214148FFF70AFF92
:1008B000C82000F083FC01213D48FFF705FF02211D
:1008C0003B48FFF7FFFE0021AE2000F099F8002121
:1008D000084600F095F80021102000F091F8002162
:1008E000402000F08DF80021812000F089F80021DF
:1008F000CF2000F085F80021A12000F081F8002130
:10090000C82000F07DF80021A62000F079F8002131
:10091000A82000F075F800213F2000F071F80021B8
:10092000D32000F06DF80021084600F069F800219E
:10093000D52000F065F80021802000F061F800214A
:10094000D92000F05DF80021F12000F059F80021D5
:10095000DA2000F055F80021122000F051F80021B3
:10096000DB2000F04DF80021402000F049F8002184
:10097000202000F045F80021022000F041F800217D
:100980008D2000F03DF80021142000F039F80021FE
:10099000A42000F035F80021A62000F031F8002155
:1009A000AF2000F02DF8FFF715FF08BD000801404B
:1009B000000C014070B500241CE004F1B001C8B285
:1009C000002100F01DF80021084600F019F8002170
:1009D000102000F015F8002508E0084901EBC501DA
:1009E000085D012100F00CF8681CC5B2802DF4DB15
:1009F000601CC4B2082CE0DB70BD00003000002099
:100A000070B505460C46FFF763FE782000F0A2F8AB
:100A1000FFF782FE1CB1402000F09CF802E00020AD
:100A200000F098F8FFF778FE284600F093F8FFF7FB
:100A300073FEFFF761FE70BD7047000029B1064AE2
:100A4000D2690243044BDA6104E0034AD26982436B
:100A5000014BDA61704700000010024029B1064ADC
:100A600092690243044B9A6104E0034A926982430B
:100A7000014B9A61704700000010024030B5002120
:100A80000022002400232D4D6D6805F00C0121B1DA
:100A9000042905D0082923D105E0294D056022E06D
:100AA000274D05601FE0254D6D6805F47012234D3C
:100AB0006D6805F48034022505EB92421CB9214D86
:100AC000554305600BE01D4D6D6805F400351DB103
:100AD0001C4D5543056002E0194D5543056002E089
:100AE000174D056000BF00BF144D6D6805F0F001A3
:100AF0000909154D6B5C0568DD4045600F4D6D685B
:100B000005F4E061090A104D6B5C4568DD408560C5
:100B10000A4D6D6805F46051C90A0B4D6B5C456860
:100B2000DD40C560054D6D6805F44041890B074DFA
:100B30006B5CC568B5FBF3F5056130BD0010024084
:100B400000127A0000093D0014000020240000205B
:100B50007047000070B5044600251BE020210F48B7
:100B6000FFF7B0FD04F0800020B180210B48FFF7B3
:100B7000ABFD03E080210948FFF7A4FD20210748D1
:100B8000FFF7A2FD20210548FFF79CFD6006040E3B
:100B9000681CC5B2082DE1DB70BD000000080140F3
:100BA00010B500F001F810BD0CB5002001900090C8
:100BB0003348006840F480303149086000BF304855
:100BC000006800F4003000900198401C01900098EB
:100BD00018B90198B0F5A06FF1D12948006800F468
:100BE000003010B10120009001E00020009000983A
:100BF000012843D12348006840F0100021490860D3
:100C00000846006820F0070008600846006840F0C9
:100C1000020008601A484068194948600846406860
:100C200048600846406840F4806048600846406874
:100C300020F47C1048600846406840F4E8104860A2
:100C40000846006840F08070086000BF0C480068EB
:100C500000F000700028F9D00948406820F0030037
:100C6000074948600846406840F00200486000BFFD
:100C70000348406800F00C000828F9D10CBD0000C2
:100C800000100240002002407047000010B51348D9
:100C9000006840F0010011490860084640681049AA
:100CA00008400E494860084600680E4908400B4954
:100CB00008600846006820F4802008600846406804
:100CC00020F4FE0048604FF41F008860FFF768FFC3
:100CD0004FF000600449086010BD000000100240A1
:100CE0000000FFF8FFFFF6FE08ED00E010B501215F
:100CF0000F4800F062F8C8B10E48007890B10E4875
:100D00000E4A127830F812100820FFF71DFC0B492C
:100D10000978481CC11700EB5161C911A0EBC11142
:100D2000064A11700121024800F038F810BD000099
:100D3000000400402C000020B00500202D00002001
:100D400008B501210220FFF779FE4FF47A701149AE
:100D50008880472008800020C88048800E4800F026
:100D600047F8012211460C4800F038F801210A48E2
:100D700000F017F81D208DF8000000208DF801000C
:100D80008DF8020001208DF803006846FFF7EAFCA9
:100D900008BD0000D006002000040040CA430282C3
:100DA000704721B1028842F00102028004E002880B
:100DB0004FF6FE731A400280704730B5024600209D
:100DC00000230024158A05EA0103958905EA010438
:100DD00013B10CB1012000E0002030BD1AB18389AD
:100DE0000B43838102E083898B438381704700003A
:100DF000002202881D4B98420ED01D4B98420BD00A
:100E0000B0F1804F08D01B4B984205D01A4B984246
:100E100002D01A4B984204D14FF68F731A404B8878
:100E20001A43174B984207D0164B984204D04FF6FE
:100E3000FF431A40CB881A4302808B8883850B8836
:100E400003850A4B98420BD0094B984208D00E4BB1
:100E5000984205D00D4B984202D00D4B984201D1DB
:100E60000B7A03860123838270470000002C014027
:100E7000003401400004004000080040000C004025
:100E800000100040001400400040014000440140B8
:100E90000048014008B5012144F20400FFF7DEFDDF
:100EA0004FF40070ADF8000018208DF80300032007
:100EB0008DF8020069461048FFF779FB4FF4806017
:100EC000ADF8000004208DF8030069460A48FFF7DA
:100ED0006EFB4FF416500949086000208880C880D6
:100EE000088188810C204881054800F0E5F801213F
:100EF000034800F086F808BD00080140C006002045
:100F0000003801402DE9FC5F40F225512C4800F0EB
:100F100084F8002851D02A4800F03AF900F0FF0B7D
:100F20005C462848006828B927482649096820F8FF
:100F3000114024E023490968491E234A32F8110070
:100F4000FFF70BFA0746214A214BFFF794F9814638
:100F50008A462046FFF701FA07461E4A1E4BFFF756
:100F60008AF94A465346CDE90001FFF7DDF8054608
:100F7000FFF700FA1449134A126821F812001248C8
:100F80001049096830F8110014490E4A126821F816
:100F900012000C490968481CC11700EB5161C911C6
:100FA000A0EBC111074A116001200D49087040F201
:100FB0002551034800F016F800BFBDE8FC9F000073
:100FC0000038014028000020B0040020CDCCCCCC5B
:100FD000CCCCEC3F9A9999999999B93FB0050020EA
:100FE0002C00002010B50022002340F66A14A14214
:100FF00000D100BF0A1201249440A3B2DC43048054
:1010000010BD21B1828942F40052828104E08289BC
:101010004DF6FF731A408281704770B50246002476
:1010200000230025002040F66A16B14200D100BF1F
:10103000C1F3421501F01F03012606FA03F3012D47
:1010400002D19689334006E0022D02D1168A334040
:1010500001E0968A33400C12012606FA04F4168841
:10106000344013B10CB1012000E0002070BDF0B598
:101070000346002400260025002040F66A17B942E6
:1010800000D100BF1846C1F3421401F01F0601272A
:1010900007FA06F5012C01D10C3004E0022C01D135
:1010A000103000E014301AB107682F43076002E0E7
:1010B0000768AF430760F0BD2DE9F04786B00546ED
:1010C0000E460024A24600BFA1460027B08900B109
:1010D00000BF2F462C8A4CF6FF700440F088044372
:1010E0002C82AC894EF6F3100440B0883189084355
:1010F000718908430443AC81AC8A4FF6FF40044039
:10110000B0890443AC8201A8FFF7B8FC1F488742AE
:1011100002D1DDF810A001E0DDF80CA0A88900F4F0
:10112000004040B10AEBCA0000EB0A1031684900E8
:10113000B0FBF1F807E00AEBCA0000EB0A103168D7
:101140008900B0FBF1F86420B8FBF0F0040120093D
:10115000642101FB1089A88900F4004040B13220CD
:1011600000EBC900B0FBF1F000F00700044308E019
:10117000322000EB09106421B0FBF1F000F00F0009
:1011800004432C8106B0BDE8F08700000038014020
:1011900001468888C0F30800704700BFFEE702E000
:1011A00008C8121F08C1002AFAD1704770470020F2
:1011B00001E001C1121F002AFBD1704770B5034640
:1011C0001C4800684FF47A72B0FBF2F1B1F1807FF5
:1011D00000D31DE021F07F40401E4FF0E02250611F
:1011E00050170F22002807DA1407260E124C00F0C1
:1011F0000F052D1F665503E01407250E0F4C2554CF
:1012000000BF00204FF0E02290610720106100BF76
:10121000002008E000BF4FF0E021096901F48031AF
:101220000029F8D0401C9842F4D300204FF0E02170
:10123000086170BD0000002018ED00E000E400E04F
:1012400008B5FFF775FA02211C48FFF73DFA0121A6
:101250004807FFF7F3FB002019490860C860FFF753
:1012600059F901210020FFF741F9FFF713FE25206E
:101270008DF8000000208DF801008DF8020001209B
:101280008DF803006846FFF76DFA012240F2255100
:101290000C48FFF7ECFEFFF7D3FAFFF751FD0CE027
:1012A0000948007848B180210848FFF75EF900201E
:1012B000054908700120FFF781FFF1E700080140B0
:1012C000B0060020003801402C000020B0050020AE
:1012D000F012000800000020300000009E110008FD
:1012E0002013000830000020B00A0000AE110008F2
:1012F00000A24A04000000000000000001020304F4
:1013000006070809000000000102030401020304AB
:10131000060708090204060800000000000000009B
:04000005080000ED02
:00000001FF
